:100000001AC036C035C034C033C032C031C030C071
:100010002FC02EC02DC02CC02BC02AC029C028C084
:1000200027C026C025C024C023C022C021C020C0B4
:100030001FC01EC0790011241FBECFEFD4E0DEBF69
:10004000CDBF11E0A0E0B1E0E4EAF1E002C005902C
:100050000D92AC30B107D9F710E0CBE1D0E003C08E
:100060002197FE0197D0CA31D107D1F764D098C04B
:10007000C7CF2C9A23E02A95F1F72C9825ED2A95E5
:10008000F1F70895CF93C82F2B9A8BB18F708BB94E
:100090009BB18C2F807F892B8BB9EBDF8BB18F705D
:1000A0008BB92BB130E1C39FC0011124822B8BB9D6
:1000B000CF91DFCFCF93C82F2B988BB18F708BB997
:1000C0009BB18C2F807F892B8BB9D3DF8BB18F7045
:1000D0008BB92BB130E1C39FC0011124822B8BB9A6
:1000E000CF91C7CF2AE233273A95F1F72A95E1F766
:1000F00008958AB1806F8AB984B1886184B9F2DFCA
:100100008BB18F708BB98BB180638BB9B2DFEADFB3
:10011000B0DFE8DFAEDFE6DF8BB18F708BB95D9AC1
:10012000A8DFE0DF88E2C6DFDDDF8CE0C3DFDADFF7
:1001300081E0C0DFD7CFCF93DF9300D000D000D0D5
:100140001F92CDB7DEB700E011E0F80181918F0179
:10015000882311F097DFF9CF80ECACDFC3DF83E3B6
:10016000898384E38A838EE28B8382E38C838D830D
:100170008DE288DFE4E01FEF1E0F81E090E08C0F3E
:100180009D1F8E0F911DFC0180817CDFE12F1F3FA1
:1001900091F7FFCFEE0FFF1F0590F491E02D09942A
:0401A000F894FFCF01
:0C01A40048656C6C6F20576F726C640033
:00000001FF
